:020000040800F2
:100000001070002059020008F7280008351C00086D
:10001000F5280008B90C0008BD63000800000000C6
:10002000000000000000000000000000A101000826
:100030005D14000800000000F501000859370008B1
:1000400073020008730200087302000873020008BC
:1000500073020008730200087302000873020008AC
:10006000730200087302000873020008730200089C
:10007000730200087302000873020008730200088C
:10008000730200087302000873020008730200087C
:10009000890E00087302000873020008730200084A
:1000A000730200087302000873020008730200085C
:1000B0003D3B00084D3B0008613B0008730200080F
:1000C000730200087302000873020008730200083C
:1000D000730200087302000865450008ED4500083A
:1000E000730200087302000873020008893B0008CD
:1000F000813F0008730200089D3B0008730200085E
:100100007302000873020008753B000873020008C0
:1001100073020008E144000873020008730200083B
:1001200073020008730200087302000873020008DB
:1001300073020008730200087302000873020008CB
:10014000730200087302000873020008812F000880
:1001500073020008730200087302000873020008AB
:10016000730200087302000873020008730200089B
:10017000730200087302000873020008730200088B
:100180007302000873020008DFF810D000F0B4FB1F
:100190000048004739780008AFF300801070002055
:1001A0002A4B19680868B0E8F04F80F30988BFF35C
:1001B0006F8F4FF0000080F311887047000000003F
:1001C00006480068006880F3088862B661B6BFF32D
:1001D0004F8FBFF36F8F00DF00BF00BF08ED00E05F
:1001E000DFF80C00016841F470010160704700BF46
:1001F00088ED00E0EFF30980BFF36F8F134B1A68AF
:100200001EF0100F08BF20ED108A20E9F04F10609B
:1002100008B44FF0500080F31188BFF34F8FBFF345
:100220006F8F0AF04FFB4FF0000080F3118808BC7D
:1002300019680868B0E8F04F1EF0100F08BFB0EC66
:10024000108A80F30988BFF36F8F7047B4010020D4
:10025000EFF30580704700000648804706480047D6
:10026000FEE7FEE7FEE7FEE7FEE7FEE7FEE7FEE766
:10027000FEE7FEE76D3700088901000840EA010348
:100280009B0703D009E008C9121F08C0042AFAD24C
:1002900003E011F8013B00F8013B521EF9D2704710
:1002A000D2B201E000F8012B491EFBD270470022B8
:1002B000F6E710B513460A4604461946FFF7F0FF65
:1002C000204610BD2DE9FE4F804681EA0300C00F95
:1002D0000C46009021F0004123F00045B8EB0200ED
:1002E000A94105D24046214690461C460B4602468F
:1002F00023F00040104347D0270DC7F30A00C3F393
:100300000A510290401A019040286BDAC3F313009F
:1003100040F4801B0098924620B10023D2EB030AE0
:1003200063EB0B0B01985946C0F14002504600F0B8
:10033000FEF906460D4650465946019A00F006FA67
:1003400010EB08006141002487EA115284EAE77348
:100350001A4340D0009A62B3019A012A4FEA075229
:1003600015DC001B61EB02014FF0004202EA07526C
:10037000CDE90042001C41F5801132462B4600F0C9
:100380003DFA03B0BDE8F08F40462146F9E7001B77
:1003900061EB0201001C41F5801300185B4120183D
:1003A000A2F5001747EB030140EAD570B6196D417D
:1003B00011E06D084FEA360645EAC0754FEA07526C
:1003C000001B61EB0201001C41F5801149084FEA56
:1003D00030000019514132462B4603B0BDE8F04FC2
:1003E00000F0FDB90098012240000023D0EB02028A
:1003F00063EBE073009821464FEAE074B8EB00002D
:1004000061EB0401E9E783F000435BE781F0004121
:1004100058E72DE9FE4F81EA030404F0004421F07F
:10042000004100944FF0000B23F0004350EA010418
:100430005ED052EA03045BD0C3F30A54C1F30A55F9
:100440002C44A4F2F3340194A0FB0254C1F3130131
:1004500041F48011C3F3130343F4801301FB0244FE
:1004600000FB034E840A970A44EA815447EA835703
:10047000A4FB076802958D0A05FB07854FEA932CBC
:1004800004FB0C542705029D4FEA065847EA16372D
:10049000B5EB08056EEB070C870E920E47EA811745
:1004A00042EA8312A7FB0201B6EB0B0164EB0004E6
:1004B0002B0D43EA0C335E1844EB1C50DA465146D0
:1004C000E7FB0201C5F313044FEA0B3343EA14536D
:1004D0004FEA0432019C43EA0603A4F10C0402949F
:1004E000009CCDE900B400F089F903B0BDE8F08FBD
:1004F00000200146F9E72DE9F04D81EA030404F0FC
:10050000004B21F0004514464FF0000A23F0004153
:1005100050EA050220D054EA01021DD0C5F30A5763
:100520000246C5F31303C1F31300C1F30A5640F4A6
:10053000801543F48013A7EB0608101BD64608F27B
:10054000FD3873EB050002D308F1010801E09218B1
:100550005B41B8F1000F03DA00200146BDE8F08DE1
:1005600000204FF48011064684460EE0171B73EB03
:10057000050705D3121B63EB050306434CEA010C88
:1005800049084FEA300092185B4150EA0107EDD16B
:1005900052EA030012D082EA040083EA050108430C
:1005A00005D0101BAB4106D20122002306E0002239
:1005B0004FF0004302E06FF0010253101AEB060007
:1005C0004CEB085110EB0A0041EB0B01BDE8F04D7C
:1005D00000F005B90EB5C10F80EAE0700844CA0703
:1005E000002140F233438DE80E000A460B4600F02E
:1005F00005F903B000BD0EB540F233410291002170
:10060000CDE900110A460B4600F0F8F803B000BD32
:1006100000F0004230F000400AD0C10D01F56071D9
:10062000C0F3160042EA0151C20840071143704767
:10063000002001467047000030B5041E71F100042F
:1006400004DB4FF00044404264EB0101141E73F1DF
:10065000000405DB1C464FF00043524263EB0403E9
:100660008B4208BF824230BD01F0004330B421F01C
:10067000004150EA010206D00A0DA2F56072C1F3F2
:100680001301002A02DC30BC00207047440F44EA0A
:10069000C104C100E01830BC00EBC25000F068B8E3
:1006A00030B50B46014600202022012409E021FA42
:1006B00002F59D4205D303FA02F5491B04FA02F53F
:1006C0002844151EA2F10102F1DC30BD2DE9F05FD6
:1006D0000546002092469B468846064681464024B1
:1006E0001BE0284641464746224600F017F953468C
:1006F0005A46C01A914110D311461846224600F0BE
:1007000016F82D1A67EB01084F46224601200021FA
:1007100000F00DF817EB00094E41201EA4F1010472
:10072000DFDC484631462A464346BDE8F09F202A92
:1007300004DB203A00FA02F1002070479140C2F138
:10074000200320FA03F3194390407047202A06DB68
:10075000CB17203A41FA02F043EAE07306E041FA8F
:1007600002F3D040C2F1200291400843194670477D
:100770000029A8BF7047401C490008BF20F00100B5
:10078000704710B4B0FA80FC00FA0CF050EA010493
:1007900004BF10BC704749B1CCF1200421FA04F425
:1007A00011FA0CF118BF012121430843A3EB0C01FE
:1007B000CB1D4FEA00614FEA102042BF002010BC61
:1007C000704700EBC35010440029A4BF10BC704711
:1007D000401C490008BF20F0010010BC704710B554
:1007E000141E73F1000408DA401C41F10001921854
:1007F0005B411A4301D120F0010010BD2DE9F04DFD
:1008000092469B4611B1B1FA81F202E0B0FA80F251
:1008100020329046FFF78BFF04460F4640EA0A005D
:1008200041EA0B0153465A46084313D0114653EA96
:10083000010019D0C8F14002504600F06FF805469B
:100840000E46504659464246FFF771FF084305D011
:10085000012004E020463946BDE8F08D0020054324
:1008600046EAE0762C4337430A986305E40AA0EB96
:1008700008000022FD0A44EA47540A3002D500204D
:100880000146E9E7010510196941DDE9084500194C
:100890006941BDE8F04DA2E7C1F30A52C1F313016B
:1008A00040F2FF3341F480119A4202DA00200146FF
:1008B000704740F233439A42A2F2334202DC524282
:1008C00000F02CB8FFF733BF30B5041E71F10004FF
:1008D00004DB4FF00044404264EB0101141E73F14D
:1008E000000405DB1C464FF00043524263EB040357
:1008F000994208BF904230BD064C074D06E0E068C3
:1009000040F0010394E8070098471034AC42F6D356
:10091000FFF73EFC3CD200085CD20008202A04DB32
:10092000203A21FA02F00021704721FA02F3D04068
:10093000C2F12002914008431946704770B58C18E7
:1009400010F8015B15F0070301D110F8013B2A11E3
:1009500006D110F8012B03E010F8016B01F8016BD0
:100960005B1EF9D12B0705D40023521E0DD401F8CC
:10097000013BFAE710F8013BCB1A921C03E013F895
:10098000015B01F8015B521EF9D5A142D8D30020CA
:1009900070BD0029816802D041F0010101E021F021
:1009A0000101816070470000084B10B5D3F80423A3
:1009B00007490A40D0E900142143D0E9024004432A
:1009C00021431143C3F8041310BD0000002001406F
:1009D000E030FCFFC06C80B2704702460020126815
:1009E0000A4200D00120704730B542680F4B0C79A5
:1009F0001A400B6842EA04221343436082680C4B9E
:100A00004D791A40D1E9034323438C6844EA4504F5
:100A1000234313438360C26A097D22F47002491E96
:100A2000C9B242EA0151C16230BD0000FFFEFFFCC5
:100A3000FDF7FFC070B5072609290AD9C568A1F1DD
:100A40000A0404EB4404A640B543A3401D43C5601B
:100A500007E0056901EB4104A640B543A3401D43EF
:100A600005611F23072A09D2446B521E02EB820242
:100A700093409C4391400C43446370BD0D2A09D2BE
:100A8000046BD21F02EB820293409C4391400C43C3
:100A9000046370BDC46A0D3A02EB820293409C432A
:100AA00091400C43C46270BD816841F08041816017
:100AB0007047000030B58DB00121022002F0D4FB58
:100AC00001210D02284602F0F3FB032002218DF8DC
:100AD0002C000A9100248DF82F400AA9134800F039
:100AE00023FF0121284602F0EFFB0021284602F0F7
:100AF000EBFB069468020994CDE9070406A8FFF70A
:100B000053FF8DF8044000948DF80540029404943E
:100B10000120074C8DF8140069462046FFF764FF5A
:100B200001212046FFF735FF0DB030BD0004024023
:100B30000020014070B58CB00121022002F094FB2E
:100B400001214E02304602F0B3FB03208DF82C0049
:100B5000012500240A958DF82F400AA9134800F0BA
:100B6000E3FE0121304602F0AFFB0021304602F0E7
:100B7000ABFB069468040994CDE9070406A8FFF7C7
:100B800013FF8DF8044000948DF8054002940494FE
:100B9000074C8DF8145069462046FFF725FF0121C8
:100BA0002046FFF7F6FE0CB070BD000000040240C6
:100BB000002101401CB506F091FC394FDFF8E490AC
:100BC000394C3A4E3A4DDFF8EC8040F6B83A40F2F4
:100BD000DC5B0190052101A809F0A2FC7868504572
:100BE00001DA401C7860D9F80C10491CC9F80C10C7
:100BF00000F018FFD4ED020A94ED000A01F0DAF9D2
:100C000000EE100AB8EEC00A84ED010AD6ED020A21
:100C100096ED000A01F026FA00EE100AB8EEC00ABE
:100C200086ED010AD5ED020A95ED000A01F072FA8F
:100C300000EE100A4346B8EEC00A85ED010AD8ED71
:100C4000020A98ED000A01F0BDFA00EE100A44F223
:100C50003C10B8EEC00A83ED010A01F039FDCDF871
:100C600000B093ED010ABDEEC00A10EE103A95ED0A
:100C7000010AB1EE400ABDEEC00A10EE102A96ED50
:100C8000010AB1EE400ABDEEC00A10EE101A94ED52
:100C9000010ABDEEC00A10EE100A02F017FD99E736
:100CA000A467002028020020206100203461002079
:100CB000486100205C610020FEE700001CB50121B6
:100CC000084602F0D1FA4FF48070009001208DF8B0
:100CD000040000218DF8061003218DF805108DF811
:100CE00007006946014800F01FFE1CBD00000240DD
:100CF0002DE9FE4F0024D8B3D1B3CAB3C3B3401E0D
:100D0000491EC7B2CEB2521E5B1E02F0FF099DB251
:100D10000121082002F0A8FA0121480602F0BCFADD
:100D200002218DF804104FF0030B4FF000088DF8EE
:100D300006808DF805B04FF0010ACDF800B08DF8AF
:100D400007A069464D4800F0EFFD092200214B48FD
:100D500000F026FE09220121484800F021FE484803
:100D6000C0F80080016841F001010160021D09E046
:100D7000FFE70120BDE8FE8F641CA4B2642C01D9FA
:100D80000220F7E71168C907F6D03D480168016005
:100D90000168016001680160016841F010010160B3
:100DA0000168016001680160354943461C31C1F8A2
:100DB0000080D1F80080DDF830C048EA8C7CC1F8B2
:100DC00000C0D1F800C04CEA07670F600F6847EA1F
:100DD00006560E600F6847EA09460E600E682E43FD
:100DE0000E60016821F0010101604FF6F07005E02E
:100DF000641CA4B2844201D90320BBE71168C9076F
:100E0000F6D12048016841F0010101601D491C3103
:100E10000A6822F001020A601A4A0C32146844F08F
:100E200001041460021D14681460164A1432146818
:100E30001460144A40321360121D13600A6842F0B5
:100E400001020A60016803600D481430016841F036
:100E50000201016014208DF808008DF809A08DF8BA
:100E60000AB08DF80BA002A801F046FD0122022174
:100E7000034800F041FA00207CE70000000C02402B
:100E80000064004000660040F0B589B002AC07A8DD
:100E9000CDE9000406AB05AA04A9002000F034F94E
:100EA0007A480499012281420ED100210846235C30
:100EB000401C1944C0B2C9B20828F8D3082901D18E
:100EC0007348027009B0F0BD00209FED721AA1F5C1
:100ED0008073813B0CD0B1F5C17FF3D16E490870AE
:100EE0006E486F4902786F48F2B39FED6F0A51E088
:100EF0006E490A706E4908706E4908706E49087034
:100F00006E4908706E4908706E4908709DF80900B6
:100F10009DF8081000EB012000B200EE100A6A48AC
:100F2000F8EEC00A80EE810A80ED000A9DF80B0001
:100F30009DF80A1000EB012000B200EE900A634811
:100F4000F8EEE00AC0EE811AC0ED001A9DF80D001F
:100F50009DF80C1000EB012000B200EE900AF8EEB4
:100F6000E01AC1EE810A00E012E05949594C0978B3
:100F7000022908D000EE100AB8EEC00AC0EE010A3D
:100F8000C4ED000A9EE705F0A7FA84ED000A99E790
:100F90009FED510A514B81ED000A80ED000A9DF84A
:100FA00009009DF808104E4C00EB012000B200EE45
:100FB000100A4C4D4D4AB8EEC00A4D4FDFF834C10F
:100FC000C0EE010AC3ED000A9DF80B009DF80A105F
:100FD00000EB012000B200EE100AB8EEC00AC0EE2D
:100FE000010AC4ED000A9DF80D009DF80C1000EBFD
:100FF000012000B200EE100A3B49B8EEC00AC0EE74
:10100000010A9FED3F0AC5ED000A9DF80E0000F0B1
:1010100001060E70C0F340111170C0F300123A7057
:10102000C0F3C0078CF80070DFF8CCC0C0F38000BC
:1010300011448CF80000394408183049087005D173
:1010400085ED000A84ED000A83ED000A2EB185EDDE
:10105000000A84ED000A83ED000A9DF80F0029497B
:10106000802809D9C0F58070A0EB0010400000EE88
:10107000100AB8EEC00A06E0C0EB0010400000EE17
:10108000100AB8EE400A81ED000A1BE778563412C8
:101090003003002000007A44310300204401002086
:1010A0000C0300201003002000001644230300203E
:1010B0002003002022030020210300206C030020D5
:1010C0006D030020CC020020580300205C030020A8
:1010D0000803002060030020000096435001002018
:1010E00054010020580100204C0100205C01002028
:1010F0005D0100205E0100205F0100204D01002005
:101100000000000048010020F0B5224CDDE9057523
:1011100004EB0014D4F8B06516F004061670D4F889
:10112000B02532D0D2080A60D4F8B01501F002011F
:101130001970D4F8B41501F00F013970D4F8B8154E
:101140002970D4F8B815090A6970D4F8B815090CD3
:10115000A970D4F8B815090EE970D4F8BC15297136
:10116000D4F8BC15090A6971D4F8BC15090CA97129
:10117000D4F8BC15090EE97148B1012804D106481C
:10118000016841F020010160F0BD520DCBE702483B
:10119000001FF5E7006000401064004038B50024EF
:1011A000009108232246012100F014F8054640F67C
:1011B000FF7301E0641CA4B2284600F06BF8072816
:1011C00001D09C42F6D39C4201D3012038BD0020BF
:1011D00038BD0000F0B506462C48059D0468640142
:1011E00001D5002008E00468240101D5012003E0B6
:1011F0000068C00046D50220254C002704EB0014EF
:10120000C4F88075E9B3F600D4F880753743C4F8A4
:101210008075D4F8806546EA8101C4F88015D4F859
:10122000801541EA4201C4F88015D4F8842503F002
:101230000F0122F00F02C4F88425D4F884250A4354
:10124000C4F884252979EA796B7941EA0261AA799F
:10125000120442EA03221143C4F88C152978EA7873
:101260006B7841EA0261AA78120442EA0322114330
:10127000C4F88815D4F8801541F00101C4F8801530
:10128000F0BD01E0FF20FBE77605BDE70864004004
:1012900000600040174928B1012810D002281BD057
:1012A0000520704708680A6800F0010002F0020299
:1012B0000243086800F0806042EA106070470868E6
:1012C0000A6800F0010002F002020243086800F020
:1012D000006042EA5060704708680A6800F0010048
:1012E00002F002020243086800F0805042EA906077
:1012F0007047000008640040002A426901D00A4398
:1013000000E08A43426170472DE9F0470027042539
:10131000DFF8A08050383E4601F1060A102847D277
:10132000DFE800F01108130C1517191B1D1F2146CB
:101330004646462334240325402702E03D24032566
:101340002E27012613E0302411E037240FE03A2441
:101350000DE041240BE0452409E0492407E04D2439
:1013600005E0512403E0552401E0D8F82440DFF8DB
:101370004890032A19D04DB16A0009EB4400FEF7EA
:101380007DFFD8F81420294620469047002E0FD024
:10139000720009EB47005146FEF770FF31463846B0
:1013A000D8F81420BDE8F047104703250026E3E7EE
:1013B000BDE8F08770010020D80A0020074A90425B
:1013C00001D2074801E005481038064A8B0001EABF
:1013D000020101D5C160704781607047106402400E
:1013E000006002407D0F7D0F0029016802D041F0AE
:1013F000010101E021F0010101607047406880B205
:101400007047000030B50368124ACC6813400A6880
:101410002243D1E905452C432243CC6922430C6A7F
:1014200022434C6A22438C6A22434C6B22438C6BCE
:1014300022431A430260426922F00703D1E90B24D8
:1014400022431A4342610A6942604A68826089689D
:10145000C16030BD3F801CF041607047704705F0AF
:10146000E9BF00009FED3C4ADFED3C1A00B5B0EE4D
:10147000413AB0EE602AB0EE441AF0EE610A08F08C
:101480005DFDF0EE402AB0EE441AF0EE610AB0EED7
:10149000420A08F053FDB0EE402AB0EE441AF0EED6
:1014A000610AB0EE430A08F049FD2D4832EE221AD7
:1014B00032EEC22AD0ED000A2A48DFED2B3AF0EED8
:1014C000422A90ED003A294B294870EE830AB0EE8B
:1014D000413A2849284A00EE603A40EE602A00EE80
:1014E000201A00EE202AF0EE610A23EE233A62EE83
:1014F000A32A21EE231A83ED023AC0ED022A22EE3E
:10150000230A81ED021AB0EE441A82ED020AB0EE0F
:10151000430A08F013FD83ED020A90ED020AB0EED3
:10152000441AF0EE610A08F009FD80ED020A91ED1F
:10153000020AB0EE441AF0EE610A08F0FFFC81EDF9
:10154000020A92ED020AB0EE441AF0EE610A08F0C7
:10155000F5FC82ED020A00BD00C0DA4500C0DAC524
:101560001C030020180300200000FA442061002022
:1015700034610020486100205C6100201CB501211D
:10158000082001F071FE0820009000208DF8040072
:1015900003208DF8050001208DF8070069460248F8
:1015A00000F0C2F91CBD0000000C0240F0B50121A2
:1015B00089B0084601F070FE0121032001F054FEBD
:1015C00003258DF8055002264FF400408DF8046085
:1015D00001242B4F00908DF806408DF80740694696
:1015E000384600F0A1F98DF805508DF804608DF8AB
:1015F00006408DF807400820224C0090694620469E
:1016000000F092F901220F21384600F0C9F90122B9
:101610000321204600F0C4F902A802F057FF00247D
:101620004FF6FF70ADF8084003907507ADF8104015
:10163000ADF80A4002A9284602F00AFF00231A4624
:101640000321284602F025FD05A802F0A5FDADF80E
:101650001C4005A9284602F049FD0121284602F058
:10166000FDFC01221146284602F09EFD002128467D
:1016700002F0C4FE0121284602F0F6FC09B0F0BDDC
:10168000000002400004024030B589B00121022070
:1016900001F002FE0121022001F0E6FD302003905E
:1016A00003208DF8110002208DF8100001208DF824
:1016B0001200224C8DF8130003A9204600F034F9E3
:1016C00002220421204600F06BF902220521204667
:1016D00000F066F9684602F0F9FE00244FF6FF704C
:1016E000174DADF800400190ADF80840ADF802404C
:1016F0006946284602F0ACFE00231A46032128461C
:1017000002F0C7FC05A802F047FDADF81C4005A992
:10171000284602F0EBFC0121284602F09FFC012242
:101720001146284602F040FD0021284602F066FEE0
:101730000121284602F098FC09B030BD00040240A7
:101740000004004030B589B00121042001F0A4FD5F
:101750000121022001F088FDC020039003208DF8B4
:10176000110002208DF8100001208DF81200224C8B
:101770008DF8130003A9204600F0D6F802220621B6
:10178000204600F00DF902220721204600F008F95A
:10179000684602F09BFE00244FF6FF70174DADF82F
:1017A00000400190ADF80840ADF802406946284677
:1017B00002F04EFE00231A460321284602F069FC7F
:1017C00005A802F0E9FCADF81C4005A9284602F086
:1017D0008DFC0121284602F041FC012211462846D9
:1017E00002F0E2FC0021284602F008FE0121284612
:1017F00002F03AFC09B030BD00040240000800408D
:1018000030B589B00121082001F046FD01210846CC
:1018100001F02AFD274C02220021204600F0C0F8EA
:1018200002220121204600F0BBF802218DF81110A0
:101830008DF81010012103208DF8121003908DF8FF
:10184000131003A9204600F06FF8684602F03EFE30
:1018500000244FF6FF70184DADF800400190ADF830
:101860000840ADF802406946284602F0F1FD002329
:101870001A460321284602F00CFC05A802F08CFC55
:10188000ADF81C4005A9284602F030FC012128468D
:1018900002F0E4FB01221146284602F085FC0021FB
:1018A000284602F0ABFD0121284602F0DDFB09B01D
:1018B00030BD000000000240000C0040B5EEC00A40
:1018C0000E48F1EE10FA04D2B1EE400A4FF0FF31AB
:1018D00000E00121FDEEC00A8160C0ED000AF8EED3
:1018E000E00A30EE600ADFED060A20EE200ABDEEC7
:1018F000C00A80ED010A0148704700000C04002076
:1019000000007A441CB505A0D0E90010CDE9001014
:1019100069460448FFF742FC1CBD000001010101BB
:101920000101010178563412F0B5002201274FF071
:10193000030C0B6807FA02F52B40AB422CD106686A
:1019400053000CFA03F4A64306600E79D0F800E0C9
:101950009E4046EA0E0606600E79012E01D0022E48
:1019600012D18668A64386604E79D0F808E09E4082
:1019700046EA0E0686604668AE43466045688E7944
:101980009640B6B235434560C568A543C560CC797D
:101990009C40C3681C43C460521C102AC9D3F0BDCC
:1019A0004B07DB0E9A40C90810B500EB8100016AB5
:1019B0000F249C40A1430162016A1143016210BDE2
:1019C0000183704710B50A4C0146072301222046C7
:1019D000FFF730F82046FFF767F802212046FEF7B0
:1019E000FCFF0028F9D02046BDE81040FEF7F2BF0A
:1019F0000020014010B50A4C014607230122204671
:101A0000FFF718F82046FFF74FF802212046FEF7AF
:101A1000E4FF0028F9D02046BDE81040FEF7DABF09
:101A20000021014010B5022001F0B0FC324C2060D2
:101A3000032001F0ABFC6060042001F0A7FCA06073
:101A4000052001F0A3FCE06094ED000A2B49B8EEFC
:101A5000C00A81ED000AB5EEC00A8039F1EE10FA35
:101A600001D081ED1F0A94ED010AA2689FED241AAE
:101A7000B8EEC03A524200EE102A404223EE013A3C
:101A8000F8EEC02A00EE100A1E48B8EEC02A91ED0A
:101A90001F0AD0ED000A1C4820EE010A62EE812ADE
:101AA00022EE011A60EE201A90ED000A1848C1EEED
:101AB000803ADFED161A63EEA13AC0ED003A63EE0C
:101AC000203A144883EE803A23EE213A80ED003A22
:101AD00022EEA03A61EE200A0F48C3EE002A80EE03
:101AE000801A62EEA12AC0ED002A0C4821EE210ADC
:101AF00080ED000A10BD0000445F0020A802002015
:101B00000000C84214030020640300200000FA44CF
:101B10002061002034610020486100205C610020C9
:101B20002DE9F04100250E4607462C4608E03846D0
:101B3000FFF748FF0544052005F07CFC641CE4B277
:101B4000B442F4D3B5FBF6F080B2BDE8F0810000FA
:101B500010B50820FFF74EFFFEF74DFD9FED0E1B61
:101B600053EC112BFEF755FC9FED0D1B53EC112B85
:101B7000FEF74FFC9FED0C1B53EC112BFEF749FCBD
:101B80009FED0B1B53EC112BFEF743FCFEF76CFD96
:101B900000EE100A10BD00006666666666660A40C2
:101BA00000000000000026400000008014AEEF3F5F
:101BB000000000000000303F4069806880B270473C
:101BC000084490F89F03704710B50022044613465E
:101BD000C0F8102304EB8200C0F81833C0F8543367
:101BE000A01880F89033521CD2B20F2AF2D30820EA
:101BF000A4F8B603204603F049FC204603F03EFA61
:101C0000204603F07CF90121204603F09FFC20468A
:101C100003F0B5F9204603F057FA002010BD00226A
:101C2000431883F89F2300EB4113C3F8C42303F048
:101C300067BB000008B50C4D0C4E0D4F0C2495F8F9
:101C400000040094052300211020326801F0E4F81C
:101C5000386830B90523502214211020009401F077
:101C6000DBF800F089FFEAE735E000E00000002043
:101C70002000002070B50D4C0025C4F8A8520C4877
:101C8000016821F440010160016841F480010160B4
:101C9000C4F8AC52012004F52A7405F0E7FB0120DA
:101CA000206005F0E3FB256070BD0000008040422D
:101CB000000402401CB50121022001F0D5FA4FF4C6
:101CC0004060012400908DF8044000208DF806004B
:101CD00003208DF805008DF8074069460448FFF79A
:101CE00023FE0448C0F8A842C0F8AC421CBD000066
:101CF000000402400080404270B50D4C0026C4F83C
:101D0000A8620C48016821F440010160016841F4B7
:101D1000800101600125C4F8AC52284604F52A74FC
:101D200005F0A4FB2560012005F0A0FB266070BD36
:101D300000804042000402402DE9F04781461848E7
:101D40000025016821F44001016001680160154E21
:101D50002C462F464FF00108C6F8A872012005F066
:101D600085FBC6F8A8826806D6F82C12000E11B1C1
:101D700040F0010501E020F00105012005F076FBAF
:101D8000641CE4B2082CE7D3B9F1000F04D0FFF7CC
:101D9000B3FF2846BDE8F087FFF76CFFF9E70000C6
:101DA000000402400080404270B50D46044600F039
:101DB0001BF8204600F0B0F800F05EF8284600F06E
:101DC000ABF800F059F800F00FF844F0010000F013
:101DD000A3F800F051F80120FFF7AEFF044600F031
:101DE0002BF8204670BD000070B51148016821F441
:101DF00040010160016841F4800101600D4C012047
:101E0000C4F8AC02D4F82C1200290FD0C4F8A802F0
:101E100005F02CFB0025C4F8AC52D4F82C020028A5
:101E200004D1012005F022FBC4F8A85270BD0000C7
:101E300000040240008040420D4810B5016821F4C2
:101E400040010160016841F480010160094C0020FB
:101E5000C4F8A802C4F8AC02012004F52A7405F005
:101E600005FB012020606060BDE8104005F0FEBA6F
:101E7000000402400080404270B51248002401680E
:101E800021F440010160016801600F4D0126C5F891
:101E9000AC62304605F0EAFAC5F8A86207E0641CB7
:101EA000E4B2322C03D9FFF7C7FF002070BD012038
:101EB00005F0DCFAD5F82C020028F0D1C5F8A8020C
:101EC000012070BD00040240008040422DE9F04135
:101ED0001D4614460F468046069EFFF765FF621CAE
:101EE000FF21C4F1080301FA02F22B445B1ED94022
:101EF0000A43C5F108018E40D2B2F1B2C4F1070322
:101F0000D940104040EA01023946404600F034F81A
:101F10000120BDE8F08100002DE9F041054614489C
:101F2000016821F440010160016841F48001016011
:101F3000104E0027C6F8A8723C464FF00108E80989
:101F4000C6F8AC026806050E012005F08FFAC6F847
:101F5000A882012005F08AFAC6F8A872012005F0CF
:101F600085FA641CE4B2082CE9D3BDE8F0810000D6
:101F7000000402400080404270B515460E460446FB
:101F8000FFF732FF2046FFF7C7FFFFF775FF304628
:101F9000FFF7C2FFFFF770FF2846FFF7BDFFFFF70F
:101FA0006BFFFFF749FF012070BD0021D020FFF734
:101FB000FBBE0000204830EEC00A2049D0ED000AE8
:101FC00010EE100A60EE800A884201DD9FED1C0AC7
:101FD0001C4910EE100A884201D99FED1B0A1B48CC
:101FE0001B491C4A90ED0D1A91ED002A70EE411A22
:101FF000B0EE601A02EE211AD0ED0C1A31EE211A61
:1020000011EE101A80ED0C1A914203DD9FED121AA9
:1020100080ED0C1A11EE101A104A914203D99FED6F
:10202000101A80ED0C1A80ED0D0ABDEEC10AC0ED4C
:102030000F0A10EE100A70471003002000004843FA
:1020400000004843000048C3000048C328020020A5
:102050000C0300200078824600788246007882C611
:10206000007882C6204830EEC00A2049D0ED000A30
:1020700010EE100A60EE800A884201DD9FED1C0A16
:102080001C4910EE100A884201D99FED1B0A1B481B
:102090001B491C4A90ED121A91ED002A70EE411A6C
:1020A000B0EE601A02EE211AD0ED111A31EE211AAB
:1020B00011EE101A80ED111A914203DD9FED121AF4
:1020C00080ED111A11EE101A104A914203D99FEDBA
:1020D000101A80ED111A80ED120ABDEEC10AC0ED92
:1020E000140A10EE100A7047100300200000484345
:1020F00000004843000048C3000048C328020020F5
:102100000C0300200078824600788246007882C660
:10211000007882C6204830EEC00A2049D0ED000A7F
:1021200010EE100A60EE800A884201DD9FED1C0A65
:102130001C4910EE100A884201D99FED1B0A1B486A
:102140001B491C4A90ED171A91ED002A70EE411AB6
:10215000B0EE601A02EE211AD0ED161A31EE211AF5
:1021600011EE101A80ED161A914203DD9FED121A3E
:1021700080ED161A11EE101A104A914203D99FED04
:10218000101A80ED161A80ED170ABDEEC10AC0EDD7
:10219000190A10EE100A704710030020000048438F
:1021A00000004843000048C3000048C32802002044
:1021B0000C0300200078824600788246007882C6B0
:1021C000007882C6204830EEC00A2049D0ED000ACF
:1021D00010EE100A60EE800A884201DD9FED1C0AB5
:1021E0001C4910EE100A884201D99FED1B0A1B48BA
:1021F0001B491C4A90ED1C1A91ED002A70EE411A01
:10220000B0EE601A02EE211AD0ED1B1A31EE211A3F
:1022100011EE101A80ED1B1A914203DD9FED121A88
:1022200080ED1B1A11EE101A104A914203D99FED4E
:10223000101A80ED1B1A80ED1C0ABDEEC10AC0ED1C
:102240001E0A10EE100A70471003002000004843D9
:1022500000004843000048C3000048C32802002093
:102260000C0300200078824600788246007882C6FF
:10227000007882C630B50446F348F34D0122007859
:10228000F249AD1C012806D002287DD003287CD05D
:102290000020087030BD0A70E078287020796870DE
:1022A0006078A870A078E870A0790022C0F30011CF
:1022B000281D07F007FAA0790122C0F38011281D1C
:1022C00007F000FAA0790222C109281D07F0FAF9E7
:1022D000A0790322C0F34011281D07F0F3F96079BB
:1022E00000F00F000F280CD0C107C0F341001AD036
:1022F000002863D0012863D0022867D0032825D1A5
:1023000066E004220021281D07F0DCF905220021E7
:10231000281D07F0D7F906220021281D07F0D2F961
:10232000072200210FE030B1012806D0022806D094
:1023300003280BD105E0042204E0052202E0062276
:1023400000E007220121281D07F0BCF9A07908222E
:10235000C0F38001281D07F0B5F9A0790922C0F368
:10236000C001281D07F0AEF9A0790A2200F0010192
:10237000281D07F0A7F9A0790B22C0F34001281D02
:1023800007F0A0F9607901E028E0B9E0C0F300119E
:102390000C22281D07F096F960790D22C0F3401138
:1023A000281D07F08FF960790E22C0F38011281DD7
:1023B00007F088F96079C1090F2235E1042200E0B5
:1023C00006220121281D07F07DF9B6E7062200E06C
:1023D00004220121281D07F075F9B2E70A70A179DE
:1023E000802011B9E17901B9A071A1792970217A10
:1023F00011B9617A01B92072217AC1F1FF016970C6
:10240000A17A11B9E17A01B9A072A17AA970217BF0
:1024100001B92073207B0422C0F1FF00E870A0788E
:1024200000F00101281D07F04DF9A0780522C0F346
:10243000C001281D07F046F9A0780622C0F340012C
:10244000281D07F03FF9A0780722C0F38001281D5E
:1024500007F038F9A0780022C0F34011281D07F0DA
:1024600031F9A0780322C0F30011281D07F02AF9E2
:10247000A0780122C0F38011281D07F023F9A0786D
:102480000222C109281D07F01DF9E0780A2200F098
:102490000101281D07F016F9E0780B22C0F3400176
:1024A000281D07F00FF92079FF2825D000210822E8
:1024B000281D07F007F96079FF281FD000210922A5
:1024C000281D07F0FFF8E0780E22C0F30011281D48
:1024D00007F0F8F8E0780D22C0F34011281D07F04E
:1024E000F1F8E0780F22C0F38011281D07F0EAF818
:1024F000E078C1090C2297E00121D8E70121DEE74D
:102500000A70E0782870207968706079A870A079E6
:10251000E8706078002200F00101281D07F0D2F871
:1025200060780322C0F34001281D07F0CBF86078E3
:102530000122C0F38001281D07F0C4F86078022250
:10254000C0F3C001281D07F0BDF820780A22C0F3AF
:102550000011281D07F0B6F820780B22C0F34011B7
:10256000281D07F0AFF820780822C0F38011281D3D
:1025700007F0A8F820780922C109281D07F0A2F861
:1025800020780C2200F00101281D07F09BF820782C
:102590000D22C0F34001281D07F094F820780E2288
:1025A000C0F38001281D07F08DF820780F22C0F3BA
:1025B000C001281D07F086F8A07800F00F000F2852
:1025C00011D0C107C0F341001FD090B3012832D011
:1025D000022836D003287FF45DAE04220121281D95
:1025E00007F070F818E004220021281D07F06AF8AF
:1025F00005220021281D07F065F806220021281D6C
:1026000007F060F8072200210EE038B1012807D05A
:10261000022807D00328DED1072204E0042202E0CA
:10262000052200E006220121281DBDE8304007F008
:1026300049B8042200E006220121281D07F042F8D3
:10264000EEE70622CAE70000A403002044000020B1
:102650000149002088807047A603002010B505219D
:102660000F4803F08BFEC82004F0E4FE0C4805215F
:102670000A3003F083FEC82004F0DCFE0848052180
:102680000F3003F07BFEC82004F0D4FE044805217F
:10269000401D03F073FEBDE81040C82004F0CABE20
:1026A000F40200201CB50121102000F0DDFD002106
:1026B0008DF80410032101208DF8051000908DF88D
:1026C000070069460148FFF72FF91CBD00100240C2
:1026D00000EE900A41421E4AB8EEE01A00EE901A4F
:1026E00000B592ED010AF8EEE00A07F027FC00EED3
:1026F000900A82ED010A174AB8EEE01A00EE901A2D
:1027000092ED010AF8EEE00A07F018FC00EE900ADC
:1027100082ED010A104AB8EEE01A00EE901A92ED2E
:10272000010AF8EEE00A07F009FC00EE900A82EDDB
:10273000010A0A4AB8EEE01A00EE901A92ED010A78
:10274000F8EEE00A07F0FAFB82ED010A00BD000096
:102750002061002034610020486100205C6100207D
:10276000BC2801D3012210E0622801D302220CE030
:102770002A2801D3032208E0142801D3042204E00C
:102780000A2801D3052200E006221A21D020FFF7F3
:10279000F3BB10B504464FF47A70844201D9044665
:1027A00002E0042C00D20424B0FBF4F0401EC2B2BC
:1027B0001921D020FFF7E0FB6008BDE81040FFF7CB
:1027C000CFBF7521D020FFF7EFBA10B580226B2163
:1027D000D020FFF7D1FBC82004F02CFE00226B2193
:1027E000D020FFF7C9FB012000F03AF8002000F0EC
:1027F0002EF86420FFF7CDFF00223821D020FFF70C
:10280000BBFB00226A21D020FFF7B6FB0022232168
:10281000D020FFF7B1FB80223721D020FFF7ACFB9F
:102820007521D020FFF7C0FA682801D0012010BD23
:1028300001226B21D020FFF79FFB00226C21D020CA
:10284000FFF79AFB3220FFF7A4FF002010BD08B568
:102850000223009004221C21D020FFF737FB08BD83
:1028600008B50223009004221B21D020FFF72EFB85
:1028700008BD00002DED028B82B004F02FFE174D35
:10288000174EDFF860809FED188ADFED188A184F29
:1028900000900221684607F043FE002403E0285D13
:1028A00003F092FE641C30688442F8D33878002824
:1028B000EFD0B8F97E0000EE100AB8EEC00A20EEA4
:1028C000080A20EE280A87ED010A38784007E0D58B
:1028D000387820F004003870DBE7000000040020A6
:1028E000DC000020D80A002000000038000034433B
:1028F000EC020020FEE7704730B50F23C278017864
:102900000125FAB1144A126801F1E02102F4E062F3
:10291000C2F5E062C2F30722C2F10404D340427858
:10292000A24084781C401443220181F800240078DE
:1029300000F01F018D404009800000F1E020C0F848
:10294000005130BD01F01F0085404809800000F1B2
:10295000E020C0F8805130BD0CED00E00249084392
:1029600002490860704700000000FA050CED00E025
:1029700010B40021084B0A46002003EBC004401CA1
:10298000C0B262548028F8D3491CC9B20829F3D3D5
:1029900010BC00F0F1B80000180400202DE9F04749
:1029A0001F4690460E4682460025DDF8209011E035
:1029B0003146504600F028F9544607E019F8050062
:1029C00001216D1C00F0BAFA641CE4B24445F5D351
:1029D000761CF6B2BE42EBD3BDE8F08710B57F2877
:1029E00016D83F2914D80723A3EBD10301F0070120
:1029F000C1F107040121A140064CDBB204EBC00089
:102A0000002AC25CC9B201D00A4300E08A43C25422
:102A100010BD000018040020F0B516460D4607460C
:102A20000024FFF7DBFF324629463846FFF7D6FF82
:102A30002819C1B232463846FFF7D0FF641CE4B211
:102A4000082CF5D3F0BD00007CB50121082000F072
:102A50000BFC01268DF8046000244FF4F0408DF843
:102A6000064000908DF805408DF8074069464048C3
:102A7000FEF75AFF0121080700F00EFC012000F0CC
:102A8000EDFB002000F074FC002000F0E7FB394D66
:102A9000C5F8B042642005F52C7504F0CBFC2E601F
:102AA0000021AE2000F04AFA0021D52000F046FABD
:102AB0000021502000F042FA0021A82000F03EFA48
:102AC00000213F2000F03AFA0021D32000F036FA2E
:102AD0000021084600F032FA0021402000F02EFAD2
:102AE00000218D2000F02AFA0021142000F026FA9F
:102AF0000021202000F022FA0021022000F01EFA1E
:102B00000021A12000F01AFA0021C02000F016FADE
:102B10000021DA2000F012FA0021122000F00EFA53
:102B20000021812000F00AFA0021EF2000F006FACF
:102B30000021D92000F002FA0021F12000F0FEF976
:102B40000021DB2000F0FAF90021302000F0F6F936
:102B50000021A42000F0F2F90021A62000F0EEF9F7
:102B60000021AF2000F0EAF9FFF702FF7CBD000072
:102B7000000C02400080414270B5104E002505F166
:102B8000B000C0B2002100F0D9F90021084600F0E1
:102B9000D5F90021102000F0D1F9002406EBC40083
:102BA0000121405D00F0CAF9641CE4B2802CF5D329
:102BB0006D1CEDB2082DE2D370BD0000180400209A
:102BC00070B5104E002505F1B000C0B2002100F034
:102BD000B5F90021084600F0B1F90021102000F0FD
:102BE000ADF9002406EBC4000121405D00F0A6F918
:102BF000641CE4B2802CF5D36D1CEDB2022DE2D33F
:102C000070BD00001804002010B50446B031C8B2F1
:102C1000002100F093F9102040EA1410002100F088
:102C20008DF904F00F00BDE81040002100F086B9D6
:102C300070B515460E4604460CE02A46314620463D
:102C400000F0A8F81034E4B2702C02D90024103639
:102C5000F6B2AD1C28780028EFD170BD70B51546CE
:102C60000E4604460CE02A463146204600F04EF857
:102C70000C34E4B2742C02D900240C36F6B2AD1C2C
:102C800028780028EFD170BD2DE9F04F203A984602
:102C90000D468346894602F0FF0A00262EE0B8F171
:102CA0000C0F08D0174901EB0A100027845D20069D
:102CB00007D5099A08E014490AEB4A0001EB8000A5
:102CC000F3E7099890B1002229465846FFF786FE9F
:102CD0006D1C6006EDB2040EA5EB0901414507D15C
:102CE0000BF101004D4600F0FF0B05E00122EBE780
:102CF0007F1CFFB2082FDAD3761CF6B24645CED33E
:102D0000BDE8F08F98B9000824B500082DE9F74F09
:102D1000172514781E4B8B46002000EB800101EB39
:102D2000C00113F81160A6422DD103EB410956787A
:102D300099F80110B14226D100254FF0800A09EB25
:102D40000500009990F8028005F0010000240BEBCB
:102D5000550701EBC0062AFA04F010EA080F06EB4B
:102D60000400F9B2C0B201D0012200E00022FFF756
:102D700035FE641CE4B2082CEDD36D1CEDB2182DA9
:102D8000DDD3BDE8FE8F401CC0B2A842C5D3F8E732
:102D9000F2CC00082DE9F74F652514781D4B8B46C2
:102DA000002000EB001113F81160A6422DD103EBB7
:102DB0004109567899F80110B14226D100254FF00B
:102DC000800A09EB0500009990F8028005F00100E7
:102DD00000240BEB550701EBC0062AFA04F010EAB9
:102DE000080F06EB0400F9B2C0B201D0012200E0E6
:102DF0000022FFF7F3FD641CE4B2082CEDD36D1C38
:102E0000EDB2202DDDD3BDE8FE8F401CC0B2A8423C
:102E1000C7D3F8E788BF00082DE9FF4F81B000272E
:102E2000DDF838B01D46924680463C464FF0010919
:102E30004FEA5B0627E0281B401EC1B20A2004F0BF
:102E400049FDBAFBF0F00A21B0FBF1F201FB1200E0
:102E500027B9691E8C4201DA48B101273030C2B26D
:102E600006FB0480C0B25B46CDF8009006E006FB8E
:102E70000480C0B25B462022CDF800900299FFF793
:102E800003FF641CE4B2AC42D5D305B0BDE8F08FBB
:102E9000F8B516460D460446012714E07A2C02D9EF
:102EA00000241035EDB23A2D03D900242546FFF752
:102EB0005FFD009732780C2329462046FFF7E4FE99
:102EC0000834E4B2761C30780028E7D1F8BDF8B5B4
:102ED00016460D460446012714E07A2C02D9002438
:102EE0001035EDB23A2D03D900242546FFF740FDF9
:102EF00000973278102329462046FFF7C5FE083494
:102F0000E4B2761C30780028E7D1F8BD30B50A4D20
:102F100000242868C11700EB1170B4EB201F01DA00
:102F2000012200E0002200212046FFF775FD641C0D
:102F3000E4B2802CEDD330BD7003002030B5002307
:102F40000E4A012411B1C2F8AC4201E0C2F8AC3221
:102F50000021C2F8B832050602D5C2F8B44201E039
:102F6000C2F8B432C2F8B8424006491C000EC9B2D9
:102F70000829EED3C2F8AC4230BD000000804142C7
:102F80000B4810B50188491C0180018840F6B83211
:102F9000914207D90021018001F066FF0549032015
:102FA000087010BDBDE81040034801F087BE000066
:102FB0008E03002070610020F4610020F0EE400AD2
:102FC00090ED030A30EE200A80ED030A90ED041A1A
:102FD000C0ED040AD0ED011A30EEC11A21EE800ACC
:102FE000D0ED001A01EEA00AD0ED020A00EE810A2F
:102FF00010EE100AB0F17A5F01DDB5EE000A10EEB6
:10300000100A10F1834F01D9BDEE000A704700008D
:103010002DE9F84301250746ADF800501B4800266E
:103020004670ADF800501A4C80464FF6FF7924E008
:10303000BDF80000384202D0C4F8B05201E0C4F834
:10304000B062C4F8A052052004F010FAC4F8A062DF
:10305000052004F00BFAC4F8A052D4F83C0230B1B9
:1030600098F80110BDF80020114388F80110BDF850
:10307000001009EA4100ADF80000BDF80000FF288B
:10308000D6D9BDE8F843102004F0F0B918080020A4
:103090000000424210B5154C0020C4F8A8021020D0
:1030A00004F52A7404F0E2F90120FFF7B1FF432090
:1030B000FFF7AEFF0020FFF7ABFF0120FFF7A8FFEF
:1030C0000020FFF7A5FF0020FFF7A2FF0020FFF779
:1030D0009FFF0020FFF79CFF0020FFF799FF0120D2
:1030E0002060BDE81040102004F0C0B9000042424A
:1030F00010B5154C0020C4F8A802102004F52A745D
:1031000004F0B4F90120FFF783FF4320FFF780FFAD
:103110000020FFF77DFF0020FFF77AFF5A20FFF71E
:1031200077FF5A20FFF774FF5A20FFF771FF5A20EC
:10313000FFF76EFF5A20FFF76BFF01202060BDE80C
:103140001040102004F092B9000042427CB50121E9
:10315000102000F089F84FF40040002400908DF812
:10316000044003208DF805000C4E02258DF8075011
:1031700069463046FEF7D8FB01218DF804108DF822
:1031800006404FF4A8508DF8055000908DF80710B8
:1031900069463046FEF7C8FB7CBD000000100240C7
:1031A00010B500F00DF800F00BF800F009F8FFF78B
:1031B00071FF00F027F8BDE81040FFF799BF00004D
:1031C00010B50F4C0020C4F8A802102004F52A7492
:1031D00004F04CF90120FFF71BFF4220FFF718FF16
:1031E0000020FFF715FF0020FFF712FF0020FFF778
:1031F0000FFF01202060BDE81040102004F036B918
:103200000000424210B5144C0020C4F8A80201206E
:1032100004F52A74FFF7FCFE4420FFF7F9FE0020B6
:10322000FFF7F6FE0120FFF7F3FE0320FFF7F0FEA5
:103230000020FFF7EDFE0020FFF7EAFE0020FFF779
:10324000E7FE0020FFF7E4FE01202060BDE810400B
:10325000102004F00BB9000000004242014908624E
:103260007047000000000E42044A0029116801D096
:10327000014300E081431160704700003038024094
:10328000044A0029116801D0014300E08143116024
:103290007047000034380240044A0029116801D008
:1032A000014300E081431160704700004038024054
:1032B000044A0029116801D0014300E081431160F4
:1032C0007047000044380240044A0029116801D0C8
:1032D000014300E081431160704700002438024040
:1032E00070B5204B1968204C11F00C0104D0661009
:1032F000042903D0082903D004601BE0066019E00C
:10330000184A121F1168C1F38055116801F03F017E
:1033100015B1B6FBF1F101E0B4FBF1F114681268EC
:10332000C4F388146143C2F30142521C5200B1FB42
:10333000F2F1016019680F2202EA11110B4A545C84
:103340000168E14041601C68072505EA9424145D8A
:1033500021FA04F484601B6805EA5333D25CD1403F
:10336000C16070BD083802400024F400A4010020B0
:10337000054900220A700A70012802D0042801D1F0
:1033800005200870704700007038024000210228B4
:1033900007D003280BD004280BD005280BD0002021
:1033A00070474FF08042506A516200B27047044A41
:1033B00002E0044A00E0044A1068116000B270475D
:1033C0002404004024080040240C004010B551ECB7
:1033D000100B2DED068BB0EE439AF0EE629AB0EE34
:1033E00042AAF0EE618AB0EE418AFDF73DF9BDEEEA
:1033F000CA0A154910EE102ABDEEE90A086081EDEF
:10340000018A10EE103AC1ED058AC1E9022381ED6F
:10341000049A9900514300EE101A0C49B8EEC00A04
:1034200081ED000A9FED0A0A0A4929EE000A81EDA2
:10343000000A09490860094880ED008A0848C0ED83
:10344000008ABDEC068B10BD545F00206403002091
:10345000DB0F494014030020180300201C03002048
:103460006803002070B5394C4FF4AD700A2120601C
:103470000920FEF755FB2168354C90FBF1F0C0B2F6
:103480002070052801D905202070C0B2DFED312A57
:103490009FED311A9FED313A062819D2DFE800F08E
:1034A000030E252E353EF0EE411A9FED2D3AB3EE78
:1034B0000E2A9FED2C1A9FED2C0B07E09FED2C3A66
:1034C000B3EE0E2ADFED2B1A9FED2B0BFFF77EFFDD
:1034D0002578042208242A482A490723062D30D2B9
:1034E000DFE805F0252830302C30F0EE411AB3EE3D
:1034F0000E2A9FED251A9FED250BE7E7B3EE0E2A66
:10350000F0EE411A9FED230BE0E7F0EE411AB3EE27
:103510000E2A9FED221A9FED220BD7E79FED223A4C
:10352000B3EE0E2AF0EE411A9FED200BCEE70460B9
:103530000E2005E0062202600A2001E004600B2054
:10354000086070BD02600B6070BD00005003002079
:10355000080300200000FA4300000000B81E853D6B
:103560009A99993D7B14AE3D022B8716D9CEB73F71
:103570008FC2753D643BDF3D00000000000000008D
:10358000280300202C030020BC74133E00000080A0
:103590006ABCC43F000000A0EFA7C63FE926313E49
:1035A000000000C09DEFC73FC520303D000000E097
:1035B0007A14CE3F012141700022027042600272F3
:1035C000417241817047000010B50022104B15E098
:1035D000362809D039280BD03C2812D01C783F2837
:1035E00013D044F0800406E01C7844F0010402E0AB
:1035F0001C7844F002041C70401C521C8A42E7D321
:1036000010BD1C7844F00804F5E744F00404F2E728
:10361000EC02002002F0B2BE0CB500222749009255
:103620000192086840F4803008604FF4A0430868B5
:1036300000F4003001900098401C0090019810B9EF
:1036400000989842F3D10868800334D50120019096
:103650001A484030026842F08052026018480268FE
:1036600042F4404202601548083002680260026875
:1036700042F400420260026842F4A0520260031F5A
:10368000104A1A600A6842F080720A600A68920161
:10369000FCD50D4940F205720A60016821F0030172
:1036A0000160016841F0020101600168C1F381011C
:1036B0000229FAD10CBD01920CBD00000038024075
:1036C0000070004008544007003C0240F0B5174E1F
:1036D000174F059D44F29F14002803DA34602044FC
:1036E000386002E03C60201A30601248002903DA9A
:1036F00044632144816302E08463611A41630E489C
:10370000002A03DA84631119416302E04463A11AB9
:103710008163002B03DA04641919C16302E0C463F6
:10372000E11A016405480560F0BD00003444014021
:10373000344801400040014000000140381800407A
:103740004FF0E0210428086903D020F0040008614C
:10375000704740F00400FAE710B507F087FC012835
:1037600003D0BDE8104007F075B910BD124810B580
:10377000016841F4700101601048016841F00101E5
:1037800001600E4A00210832116002680C4B1A4099
:103790000260031D0B4A1A60026822F48022026054
:1037A00006480C300160FFF737FF03494FF0006017
:1037B0008039086010BD000088ED00E0003802404C
:1037C000FFFFF6FE1030002470B5048C24F00104D5
:1037D0000484058B048C4FF6FF7606EA031313432B
:1037E00025F0F3052B4324F00A020A4342F00101BD
:1037F0000383018470BDF0B5048C24F010040484AC
:10380000078B068C4FF6FF7404EA011527F4734703
:1038100004EA0331394304EA02220A4326F0A001F4
:10382000294341F0100102830184F0BD2DE9F041EC
:10383000884607468AB001210220FFF715FD0121C5
:103840004804FFF735FD1F4E032208213046FEF7DE
:10385000A7F802208DF804000024C0018DF806406E
:10386000012500908DF8075003208DF8050069466A
:103870003046FEF759F8144EADF808800397ADF8BE
:103880001040ADF80A4002A9304600F0E1FD60208A
:10389000ADF81400ADF81650ADF8204005A930463B
:1038A00000F08AFC0821304600F0BCFC01213046C3
:1038B00000F0CAFB0121304600F0D6FB0AB0BDE89B
:1038C000F081000000040240004401402DE9F04175
:1038D000884607468AB001210220FFF7C5FC012176
:1038E0008804FFF7E5FC214E032209213046FEF74C
:1038F00057F802208DF80400002400028DF80640DD
:10390000012500908DF8075003208DF805006946C9
:103910003046FEF709F8164EADF808800397ADF86B
:103920001040ADF80A4002A9304600F091FD602039
:10393000ADF81400ADF81650ADF8204005A930469A
:1039400000F03AFC0821304600F06CFC01213046C2
:1039500000F094FB0121304600F076FB0121304657
:1039600000F082FB0AB0BDE8F081000000040240D4
:10397000004801402DE9F041884606468AB0012101
:103980004020FFF789FC01210220FFF76DFC022097
:103990008DF818004FF44040059003208DF8190071
:1039A0000024264F8DF81A4001258DF81B5005A9DB
:1039B0003846FDF7B9FF09220E213846FDF7F0FF22
:1039C00009220F213846FDF7EBFF08961C4EADF893
:1039D0001C80ADF82440ADF81E4007A9304600F029
:1039E00037FD6020ADF80000ADF802500294ADF84C
:1039F0000C40ADF810406946304600F0DDFB6946EA
:103A0000304600F015FC0821304600F00BFC082180
:103A1000304600F057FC0121304600F02FFB012119
:103A2000304600F021FB064940F2DC503831086096
:103A3000091F08600AB0BDE8F081000000040240E0
:103A4000001800402DE9F0418846074601218AB060
:103A50000846FFF72DFC01211020FFF705FC354E2D
:103A6000012209213046FDF79BFF01220B21304640
:103A7000FDF796FF01220D213046FDF791FF01224F
:103A80000E213046FDF78CFF4FF4D4400590022004
:103A90008DF8180003208DF8190000248DF81A40C5
:103AA00001258DF81B5005A93046FDF73DFF224E3C
:103AB000ADF81C800897ADF82450ADF81E4007A95A
:103AC000304600F0C5FC6020ADF80000ADF80250B3
:103AD000ADF80C406946304600F06EFB6946304652
:103AE00000F0A6FB6946304600F0F6FB694630461A
:103AF00000F040FC0121304600F0C0FA08213046B9
:103B000000F090FB0821304600F0DCFB0821304635
:103B100000F02AFC0821304600F066FC0121304606
:103B200000F092FA0121304600F09EFA0AB0BDE89A
:103B3000F081000000100240000001404FF0804082
:103B4000018A018A21F0010101827047034801883E
:103B5000018821F00101018070470000100400403D
:103B600003480188018821F00101018070470000AD
:103B70001008004003480188018821F001010180FC
:103B800070470000100C004003480188018821F0B4
:103B90000101018070470000101800402DE9F04736
:103BA0009F480024C169B1F5C86F13DD9D490A78AB
:103BB00082B99D4A5268B2F57A7F0BDB01220A7006
:103BC0009A490C709A490C709A490C709A490C7079
:103BD0009A490C7080460078994D000642F20F76A3
:103BE0004FF4FA7735D40221284600F073FA80B3F7
:103BF0000221284600F035FA98F8000040062846D1
:103C000045D500F05FFA80B2A8F80A00B8F808209D
:103C10004146904201D28E6300E08C63801A8A6B29
:103C2000104488618A6A801A00D54042B84207DD94
:103C30000879401CC0B20871052801D88A6100E0EB
:103C40000C718869886288F800400021284600F0DD
:103C5000E3FA98F80100000643D40421284600F056
:103C600039FAA0B30421284600F0FBF998F80100C6
:103C70004006284653D500F027FA80B2A8F80E0077
:103C8000B8F80C10424688420ED2D6630DE000F020
:103C900019FA0146A8F8081098F8001041F0400100
:103CA00088F800100221D1E7D463401AD16B084490
:103CB000D061D16A401A00D54042B84208DD50793F
:103CC000401CC0B25071052802D8D16101E008E063
:103CD0005471D069D06288F801400021284600F074
:103CE000E7FA98F80200000643D40821284600F0BD
:103CF000F1F9A0B30821284600F0B3F998F80200C2
:103D00004006284654D500F0E1F980B2A8F8120028
:103D1000B8F81010424688420ED216640DE000F04A
:103D2000D3F90146A8F80C1098F8011041F04001B1
:103D300088F801100221D1E71464401A116C08447C
:103D40001062116B401A00D54042B84208DD9079EC
:103D5000401CC0B29071052802D8116201E008E051
:103D60009471106A106388F802400021284600F020
:103D7000F1FA98F80300C14600064FD410212846F6
:103D800000F0A8F9002849D01021A846284600F0E4
:103D900068F999F803004D46400633D5404600F0D7
:103DA00097F980B2E882A98A88420ED26E640DE04B
:103DB00000F08CF90146A8F8101098F8021041F0B4
:103DC000400188F802100221D0E76C64401A696C47
:103DD00008446862696B401A00D54042B84207DD6A
:103DE000E879401CC0B2E871052801D8696200E09A
:103DF000EC71686A6863EC7000214046BDE8F047EA
:103E000000F0E8BA4446404600F062F9A882E8783B
:103E1000022140F04000E8702046EFE7BDE8F0875F
:103E20008C00002022030020A46700202103002032
:103E300020030020230300206C0300206D030020DA
:103E4000000401402DE9F041884605468AB0012171
:103E50000220FFF72DFA01210420FFF705FA4FF4A5
:103E60007070022603908DF8106003208DF8110009
:103E70000024414F8DF812408DF8136003A9384695
:103E8000FDF752FD032206213846FDF789FD032286
:103E900007213846FDF784FD032208213846FDF747
:103EA0007FFD032209213846FDF77AFD334FADF837
:103EB00014800695ADF81C40ADF8164005A93846AB
:103EC00000F0C6FA01250F20ADF80040ADF804500F
:103ED000ADF80800ADF80240ADF806406946384636
:103EE00000F004F90420ADF80000ADF80450ADF87E
:103EF0000240ADF80640ADF808406946384600F08B
:103F0000F5F80820ADF80000ADF80450ADF8024017
:103F1000ADF80640ADF808406946384600F0E6F8CE
:103F20000C20ADF80000ADF80450ADF80240ADF83B
:103F30000640ADF808406946384600F0D7F82E2014
:103F40008DF820008DF821608DF822608DF82350C7
:103F500008A8FEF7D1FC01221E21384600F024F902
:103F60000121384600F08AF80121384600F07CF83B
:103F70000AB0BDE8F08100000008024000040140E2
:103F80000248018821F001010180704710040140BE
:103F90002DE9F0438946804601218BB00804FFF7E4
:103FA00087F901211020FFF75FF9254F0322052132
:103FB0003846FDF7F5FC032206213846FDF7F0FCF4
:103FC00002208DF8180003208DF8190000246026C7
:103FD0008DF81A40012505968DF81B5005A9384625
:103FE000FDF7A2FC174FADF81C90CDF82080ADF87E
:103FF0002440ADF81E4007A9384600F029FAADF874
:104000000060ADF80250ADF80C406946384600F04B
:10401000D3F86946384600F00BF90821384600F01D
:1040200001F90821384600F04DF90121384600F029
:104030000BF80121384600F017F80BB0BDE8F0830B
:1040400000100240004001400029018802D041F0E8
:10405000800101E021F0800101807047C9430182A5
:104060007047C943018270470029018802D041F09E
:10407000010101E021F0010101807047002930F8C1
:10408000441F02D041F4004101E0C1F30E01018060
:10409000704770B50589048B068C25F007050D4324
:1040A0004FF6FC410C4040F201110C434FF6FF71FA
:1040B00001EA031126F022061143314305810483EE
:1040C000018470BD406B7047806B7047C06B704758
:1040D000006C704702460020138A92890B4202EA64
:1040E000010202D0002A00D0012070472DE9F041E2
:1040F0000C460E884988A2882389054616B3042EEB
:1041000028D0082E2E8C4FF6FF702BD026F4805628
:104110002E84AF8B2E8C00EA022200EA013127F4B4
:1041200073473A4300EA0330104326F420420A431F
:1041300042F48051A8832984E1882846BDE8F041F3
:1041400000F07AB9FFF740FBE1882846BDE8F0416E
:1041500000F056B9FFF74FFBE1882846BDE8F04173
:1041600000F056B926F480762E84AF8B2E8C00EAB0
:10417000012100EA0310104327F0F307384326F427
:1041800020620A4342F48071A8832984E18828468A
:10419000BDE8F04100F048B90021018041800122D2
:1041A0008280C18001817047002A828901D00A4340
:1041B00000E08A438281704730B5028C22F0010210
:1041C0000284028C8388048B22F0020224F073059F
:1041D0000C882C438D8915434A882A430C4DA842EC
:1041E00002D00C4DA8420DD122F00805CA8923F453
:1041F00040732A4322F004058A882A430D8A1D430E
:104200004B8A2B438380048389684163028430BDD9
:104210000000014000040140028C22F002020A4327
:1042200002847047028B22F008020A43028370471F
:1042300070B5028C22F010020284028C8388048BF9
:104240000D8824F4E6464FF6FF7404EA052535434D
:104250008E8922F0200204EA061616434A8804EAF0
:1042600002123243104EB04202D0104EB04215D16D
:1042700022F08006CA8923F4406304EA0212324322
:1042800022F040068A8804EA021232430E8A04EAC7
:1042900086061E434B8A04EA8303334383800583E7
:1042A00089688163028470BD000001400004014000
:1042B000028C4FF6FF7322F0200203EA0111114332
:1042C00001847047028B4FF6FF7322F4006203EA09
:1042D000012111430183704770B5028C22F4807272
:1042E0000284028C8388848B0D8824F07304254318
:1042F0008E894FF6FF7422F4007204EA06261643F4
:104300004A8804EA02223243104EB04202D0104ED4
:10431000B04215D122F40066CA8923F4405304EA5E
:104320000222324322F480668A8804EA022232435F
:104330000E8A04EA06161E434B8A04EA031333432B
:10434000838085838968C163028470BD0000014059
:1043500000040140028C4FF6FF7322F4007203EA5E
:104360000121114301847047828B22F008020A4325
:104370008283704770B5028C22F480520284058CCF
:104380008288838B0C8823F4E6464FF6FF7303EA9A
:104390000424344325F400568D8903EA053535435A
:1043A0004E8803EA06362E43084DA84202D0084D37
:1043B000A84205D122F480450A8A03EA82122A43E0
:1043C0008280848389680164068470BD0000014096
:1043D00000040140028C4FF6FF7322F4005203EAFE
:1043E0000131114301847047828B4FF6FF7322F431
:1043F000006203EA012111438183704741627047E3
:10440000028B22F00C020283028B0A430283704764
:10441000028B22F440620283028B4FF6FF7303EAA1
:1044200001210A4302837047828B22F00C028283AF
:10443000828B0A4382837047828B22F4406282839C
:10444000828B4FF6FF7303EA01210A438283704790
:1044500030B50288164C174DA0420DD0A8420BD0A3
:10446000B0F1804F08D0144B984205D0134B9842BE
:1044700002D0134B984203D122F070034A881A43AA
:10448000104B984206D0104B984203D022F4407350
:104490000A891A4302804A68C2620A880285A042D9
:1044A00001D0A84201D1897A01860121818230BDE3
:1044B00000000140000401400004004000080040EA
:1044C000000C004000100040001400404FF0FF318D
:1044D00041600021018001814180817270470000AC
:1044E00038B55020EFF3118180F31188BFF34F8F5F
:1044F000BFF36F8F164DCCB240F22441284600F036
:10450000F5F8D0B12888A888124D009000212846DF
:10451000FCF76AFF2846FCF771FF0F49C0F1640001
:1045200088600E492846FCF749FF64212846FCF7BD
:1045300093FF01212846FCF757FF84F311880849AF
:104540004FF080500860BFF34F8FBFF36F8F38BDBF
:104550000050004010600240D400002020000010F5
:1045600004ED00E0F8B55020EFF3118180F31188DD
:10457000BFF34F8FBFF36F8F184DCCB240F224467C
:104580003146284600F0B2F828B32888281D008854
:10459000134F009000213846FCF726FF3846FCF701
:1045A0002DFF1049C0F16400C88064213846FCF733
:1045B00053FF01213846FCF717FF0B493846FCF73B
:1045C000FDFE3146284600F072F83005D0F8B012F2
:1045D000C943C0F8B01284F31188F8BD004400400C
:1045E00088600240D4000020000800202DE9F0413E
:1045F000294C40F225573946204600F077F870B331
:10460000204600F001F925494968B1F57A7F3FDB82
:10461000244A00210126224DD3687B2801D03BB1DA
:1046200000E013B1012B12D021E05369012B07D018
:104630005069E0B11170C8211948FBF738FE16E047
:10464000137825F813005B1C1370D66001E07D28F9
:1046500006D0117825F81100491C117007E00AE016
:10466000137825F81300C2E9031611705161394619
:10467000204600F01CF80821204600F030F8012800
:1046800006D10821204600F00FF8204600F0BCF8C3
:104690000020BDE8F081000000480040A467002031
:1046A00038080020D4000020C943018070470A0A5E
:1046B00001219140C943018070470029818902D0BE
:1046C00041F4005101E021F4005181817047002A3A
:1046D000828A01D00A4300E08A4382827047024600
:1046E000002012880A4200D00120704770B501F006
:1046F0001F0501260024C1F3421306FA05F2012B1F
:104700000FD0022B0FD0838A4FEA11210088134269
:1047100006FA01F600EA060001D000B101242046A5
:1047200070BD8389F0E7038AEEE710B5C1F3421349
:1047300001F01F040121A140012B07D0022B07D05B
:104740001430002A026805D00A4304E00C30F8E770
:104750001030F6E78A43026010BD00007FB50446C2
:10476000008A0D46C98820F4405001432182A08967
:1047700041F20C618843A9882A8911436A8902435E
:104780001143A181A08A20F44071A8890843A08226
:104790006846FEF7A5FD1A48844202D019488442B3
:1047A00001D1039800E00298A189090400EBC0013F
:1047B00001EB0010296801D5490000E08900B0FB39
:1047C000F1F06422B0FBF2F109010B096FF018055A
:1047D0006B4300EB8300A3891D044FF0320306D521
:1047E00003EBC000B0FBF2F000F0070005E003EBC4
:1047F0000010B0FBF2F000F00F00084320817FBDF5
:1048000000100140001401408088C0F30800704788
:10481000C1F308018180704730B5034600224FF68E
:10482000FF7403EB4205B5F890552D0404D5521CD6
:10483000D2B2082AF5D32246A24205D003EB4200A9
:1048400041F40041A0F89015D0B230BD30B402243C
:104850000C7501244C750024CC820A8315064C8308
:1048600000EB431202D582F8C84301E082F8C94345
:10487000002330BC1A4600F005B80121C0F810131F
:104880000020704730B50120CC780546012C0BD0B4
:10489000022C08D10A7F0D2A10D00B2A12D00C2A24
:1048A00001D1CD70032030BD0C784C7008240C7001
:1048B0008A608B810D770222CA7030BDCD700020D6
:1048C000087730BDCD70022030BD70B50C46002198
:1048D00021706170A17001220546E27022774020AC
:1048E000A07184F8201084F821202179284600F056
:1048F00018F86179284600F014F8002070BD70B5F2
:104900000446002100F0BBFAE06800258561E168FB
:10491000681E4861204600F0B1FBC4F81053002027
:1049200070BD082907D200EB4100B0F89015C1F323
:104930000E01A0F890150020704730B442F08002BC
:10494000DDE902540A7506224A750322CB82B2EBD6
:10495000132F02D140F2094200E000220A834C8367
:1049600023462A4630BCFFF78DBF00002DE9FC41ED
:10497000394D0126044695F845C0212300223746CB
:1049800000F58870BCF1050F62D2DFE80CF0032F50
:10499000033F51000922CDE900024FF404530122E4
:1049A0002046FFF7CAFF00BB2B4894F81011543083
:1049B000017094F81111417094F8121194F81321B8
:1049C00001EB0221418094F81411017194F8151142
:1049D000417194F81611817194F8171194F8182107
:1049E00001EB0221018185F8457031E01A4A4FF44C
:1049F000085354321289CDE9000201222046FFF704
:104A00009CFF28BB032085F8450021E00B750A2395
:104A10004B75CA820A834A83002320461A46FFF751
:104A200031FF042108B1032812D185F845100FE0A9
:104A30000B750B234B75CF820A8317464A830023DD
:104A400020461A46FFF71EFF10B985F8457000266C
:104A50003046BDE8FC810000B06700202DE9F0473A
:104A60002E4C81460F4694F842004FF00008032573
:104A700038B12B4E032810D0042808D005284AD17D
:104A80001BE0206D00688047042084F842004846FF
:104A900000F0BCFC01283CD03DE014F8403F1F4929
:104AA000A279484600F0DEF8012030700520A070A1
:104AB0004846FDF781F8A0812DE04846FDF77CF8D7
:104AC000B4F84C10401AB4F84A10884221D294F835
:104AD00040104846FDF774F8012807D094F84010BC
:104AE0004846FDF76DF804280AD014E03078012814
:104AF00011D100203070206D4168084888470AE0D5
:104B000094F8403094F8482039464846FFF79EFE16
:104B100008B984F842504046BDE8F087B0670020ED
:104B20009203002070B50F4C0646002594F8401003
:104B300041B100F04CFB94F840103046FFF7F1FE15
:104B400084F8405094F8411041B1304600F03FFBEA
:104B500014F8411F3046FFF7E4FE25700248057047
:104B600070BD0000B0670020920300202DE9FC47D3
:104B70002A4E824600252A48306586F8425086F83B
:104B8000455091F8520086F84800B1F85400A6F854
:104B9000460091F856000C46A946A6F84A000A2895
:104BA00002D20A20A6F84A0094F84270022F00D9D7
:104BB00002274FF0030829E004EBC50090F85210DB
:104BC0000A060CD586F8441090F85210504640362C
:104BD000FFF722FE06F8060B36F846190AE086F8BB
:104BE000431090F852105046FFF716FE86F8410029
:104BF000B6F84610CDE90081014694F8213094F8CA
:104C00002020504600F0BEF86D1CEDB2BD42D3D35B
:104C10000449484681F80090BDE8FC87B067002051
:104C2000AC030020920300202DE9F0411D461446FC
:104C30000F468046069E00F033F9002000F013F97D
:104C400021464046FFF741FEE4E91F5639464046FB
:104C5000FCF7BAFF606800688047BDE8F04100F0EB
:104C60000FB9000070B500EB4314012584F8B2536E
:104C7000C4E9EF1210490A78022A01D0032A05D1AB
:104C800094F8C82382F0010284F8C82394F8C8532A
:104C90003DB1022284F8B8230A78012A03D012B168
:104CA00005E00022F6E785F0010184F8C8131946F3
:104CB000FCF7B5FF002070BDA40300201CB504461E
:104CC000002000900190204600F0A6FB002857D05D
:104CD000204600F0A8FB0190019808B900201CBDF7
:104CE0000198C0F3C00028B1204601F01BFB0099D9
:104CF000084300900198C0F3001028B1204601F04D
:104D00005EFA0099084300900198C0F3401028B162
:104D1000204601F080F80099084300900198C0F304
:104D2000806028B1204601F0AFF900990843009057
:104D30000198C0F3406028B1204600F056FC00996D
:104D4000084300900198C0F3006028B1204601F0AC
:104D5000FDF80099084300900198C0F3407028B115
:104D6000204600F009FC0099084300900198C0F328
:104D7000405028B1204600F015FC009908430090EF
:104D80000098ACE72DE9F04100EB4105DDE906674D
:104D900095F8904504F07F0C00EB411484F8B1C302
:104DA00095F89055C5F3C01584F8B25384F8B02334
:104DB00084F8B563A4F8B67384F8B333002284F89A
:104DC000C82384F8C92313B9012284F8B42300F05E
:104DD00021FA0020BDE8F0810021C0F81413084634
:104DE00070470121C0F8141300207047002070475D
:104DF000704770477047704770477047014A0021FD
:104E000011707047B403002010B501890D4AB1F547
:104E1000016F13D0A1F580635E3B04D14389A3F5F4
:104E200000748E3C07D0792907D14089B0F5937F73
:104E300003D1032000E00220107010BD408901283A
:104E4000FAD010BDA403002001490120087070476A
:104E5000B403002070477047704770477047704731
:104E6000704701207047704708B543208DF8000057
:104E700000208DF803006846FDF73EFD08BD704731
:104E800008B543208DF8000001208DF801000021B5
:104E90008DF802108DF803006846FDF72DFD08BD62
:104EA0001CB501210846FEF7DFF901218020FEF73D
:104EB000E7F94FF4C050009002208DF80400002064
:104EC0008DF8060003218DF80510094C8DF80700B8
:104ED00069462046FCF728FD0A220B212046FCF7F4
:104EE0005FFD0A220C212046FCF75AFD1CBD000084
:104EF0000000024002F09EBA00BF00BF704770B5CC
:104F00000446017A0025C068012915D0C16841F026
:104F10004001C160204600F085F8617A4FF43410FA
:104F200009B14FF47410E16888631420FFF7E2FFC1
:104F3000E078012819D020E0816B627A21F4803179
:104F40000AB141F480118163E068C16821F0401129
:104F500021F42021C160204600F064F8E0780128A7
:104F60000BD1E1682A208860E2E7E068816821F0DF
:104F70001E010A3141F020018160284670BD2DE9F3
:104F8000F041002704463D463E46FFF76CFFD4F84B
:104F90000C010660207A01280FD00121204600F084
:104FA0002FFA204600F05DFA6069016821F00401E3
:104FB0000160E07A012802D015E00021EEE7E06808
:104FC00080214162304661F30F00E268602161F3A5
:104FD0001F409062E022304662F30F0061F31F40F1
:104FE000E168C1F800011021204600F0B9F8204620
:104FF00000F098F84FF0FF3107E004EB850050F81F
:10500000902F91600068C6606D1C2078A842F4D88B
:105010000121204600F03AF8204600F05DF83846BD
:10502000BDE8F081F8B50026044637460096124DDB
:105030000320FFF761FFE068006900907F1CAF422A
:1050400001D90020F8BD00980028F1DA009800216D
:1050500040F0010000900098E2681061E068026989
:105060000092491CA94202D8009AD207F7D1032026
:10507000FFF742FF3046F8BD400D0300C068002234
:10508000816821F0010181601046704770B50C46BF
:105090000546FFF7F4FE284600F0CAF9C10408D41B
:1050A000012C04D1D5F8CC1040F480500860C10424
:1050B00005D524B9D5F8CC1020F480500860BDE89F
:1050C0007040C820FFF716BFC0680022816841F019
:1050D000010181601046704710B5C2680024214666
:1050E0009461C368621E5A61C3685A60C3686FF0F6
:1050F00080425A61C368094A9A61C27802B9102194
:10510000C36841F048729969914311439961C0683D
:10511000034982698A438261204610BD00080080ED
:105120000800002038B5002402462146009400986B
:1051300040F0100000900098D36818610748D268CA
:1051400013690093491C814202D8009BDB06F7D407
:105150000320FFF7D1FE204638BD0000400D0300BC
:1051600038B50024034622460094009840F0200001
:105170000090009861F38A1000900098D968086147
:105180000748D9680B690093521C824202D8009BE1
:105190009B06F7D40320FFF7AFFE204638BD000082
:1051A000400D030010B500EB8100002350F8901F64
:1051B0004FF00042012464F3DC420A610068016898
:1051C00021F0804141F000410160184610BD30B52A
:1051D00000EB81040023D4F89020116841F0804155
:1051E00011F4402F09D0C1F38145022D05D040694B
:1051F000006910F47F0F03D005E0C068C06AF8E7CB
:1052000021F00041116041F00040D4F89010086096
:10521000184630BDF0B500EB81060027D6F8904067
:105220003D467B1E2A46A360C378012B00D1042291
:1052300000EB411393F8B54334B1012C1FD0022C7D
:1052400002D0032C27D10EE042F0890293F8B2433A
:1052500042F4826284B993F8B44342F04002D4B17C
:1052600042F0200217E093F8B2C342F0990242F4F0
:10527000C062BCF1000F0ED042F480720BE093F8D4
:10528000B2C342F0010242F40872BCF1000F02D036
:1052900042F08002F0E7D6F89040E26001228A40B6
:1052A00041698C6914438C61C068816941F0007167
:1052B000816193F8B00360F39C5593F8B10360F3F8
:1052C000CE2593F8B20360F3CF3593F8B3030228E9
:1052D0000CD025F4003093F8B513B3F8B62361F37E
:1052E000934062F30A00032903D004E045F4003040
:1052F000F1E740F00050D6F8901008603846F0BD55
:10530000F0B500EB41140026D4F8C03305464FF445
:10531000807C37466BB1B4F8B6239818401EB0FBBA
:10532000F2F080B2604505D912026046C4F8C0238D
:1053300000E0012094F8B223AAB1B4F8B6234243A6
:10534000C4F8C02362F3120760F3DC4794F8B80393
:1053500005EB810260F35E77D2F890000761E87890
:10536000012803D007E0D4F8C023EBE7D2F890304F
:10537000D4F8BC03586152F8900F0368284600F037
:1053800045F860F35D73126823F0804040F0004000
:105390001060E87890BB94F8B20378BBD4F8C023CF
:1053A00062B394F8B50330B1012810D0022802D0BE
:1053B000032819D10BE0E868C36AD21CC2F38F023C
:1053C0009BB2934210D2826942F020020BE06869DE
:1053D0000069D21CC2F38F0280B2904204D2E86806
:1053E000826942F080628261B4F8C0030A4683B2E7
:1053F000D4F8BC030146284600F0AAFF3046F0BDB1
:105400004069026861F30102026070474069806888
:1054100040F30000401C7047C068406910F0010074
:1054200000D001207047C06841698069084070471A
:10543000D0F8CC00006820F02E0070474069406929
:10544000704710B504460023D21C9008D4F8D02031
:1054500003E0146841F8044B5B1C8342F9D308460F
:1054600010BD70B50546FFF7E3FF40F4807455F8B2
:10547000CC0F04606420FFF73DFD296824F48070A0
:1054800008601420FFF736FD012070BD70B50022C2
:105490000123C27040268370154614468680012978
:1054A00001D061B114E0C3720821017004214FF0F2
:1054B000A04241709115C1800221017208E0C472BE
:1054C0000C210170062141701F4A4FF4A061C18078
:1054D00002F50061C0E9032100210AE002EB41135B
:1054E00003F5106600EB810403F53063A661491CE7
:1054F000636543788B42F1D802F5806141614031A8
:10550000C0F8CC10002108E002EB411300EB81044D
:1055100003F5A063491CC4F8903003788B42F3D89C
:10552000002108E002EB013300EB810403F5805316
:10553000491CC4F8D03003788B42F3D802F560627E
:10554000C0F80C21284670BD0000044010B5C368A7
:105550000024D868012920F0C04201D019B104E02C
:1055600042F0005201E042F08042DA603220FFF760
:10557000C1FC204610BD000038B504460020009054
:1055800007480068816820468847009820F000504E
:1055900000F1005000900098E1684861012038BD9A
:1055A000880300200CB50146D1F8900000680090F7
:1055B000009820F0004000F100400090009820F09A
:1055C000804000F180400090009AD1F89000026085
:1055D00000200190019820F4001000F500100190C7
:1055E0000198CA68506101200CBD7CB505460024B5
:1055F00000262846FFF722FF019000BF1BE001981C
:1056000080B20121A1400840A0B105F1900050F8FE
:105610002400006800900098C0F3C03028B12146F3
:10562000284600F00DF8064304E02146284600F025
:1056300016FA0643641C2878A042E0D830467CBDA8
:1056400070B586B005460C4605F1900050F8246010
:10565000B0680590F0680490DDE9041008400590FA
:1056600005F1900050F82400006803900020049099
:105670000598C0F38000D0B100200190019820F07F
:105680000400001D01900198B06005F1900050F8F1
:105690002400C0680190019820F00200801C019055
:1056A00005F1900050F824000199C16073E005985D
:1056B000C0F3401048B100200190019820F0200074
:1056C000203001900198B06065E00598C0F3C000FB
:1056D00078B305F1900050F82400C068019001985B
:1056E00020F00200801C019005F1900050F8240089
:1056F0000199C160052105F56470015500200190F4
:10570000019820F01000103001900198B060002046
:105710000190019820F00800083001900198B060D5
:10572000059820F010000590E1B22846FFF74FFDE4
:1057300031E0FFE70598C0F3802060B305F19000E9
:1057400050F82400C0680190019820F00200801CED
:10575000019005F1900050F824000199C160E1B278
:105760002846FFF734FD00200190019820F010003A
:10577000103001900198B060082105F56470015562
:1057800000200190019820F4806000F58060019075
:105790000198B06000BF0598C0F34020F8B105F152
:1057A000900050F82400C0680190019820F0020099
:1057B000801C019005F1900050F824000199C1600F
:1057C000E1B22846FFF703FD00200190019820F484
:1057D000007000F5007001900198B0603CE1059800
:1057E00000F00100002871D0E878012812D105F1FD
:1057F000900050F824000069029005F56C7000EBF1
:10580000441000690299C1F31201411A05F555705F
:1058100040F82410012105F5647001550021783805
:1058200040F8241000200190019820F00100401C55
:1058300001900198B0600398C0F3814020B10398B3
:10584000C0F3814002282AD105F1900050F82400CD
:10585000C0680190019820F00200801C019005F1C1
:10586000900050F824000199C160E1B22846FFF78A
:10587000AEFC00200190019820F010001030019043
:105880000198B06005F56C7000EB4410007E80F06C
:10589000010105F56C7000EB44100176DCE0039823
:1058A000C0F38140032899D1039820F0005000F103
:1058B0000050039005F1900050F824000399016016
:1058C000012105F29F300155C6E0FFE70598C0F3BE
:1058D0004000002851D005F1900050F82400C06825
:1058E0000190019820F00200019005F1900050F81D
:1058F00024000199C16005F56470005D012804D1A0
:10590000012105F29F3001552DE005F56470005D21
:10591000052804D1042105F29F30015523E005F547
:105920006470005D062804D005F56470005D0828E9
:1059300008D1002105F5467040F824100321873076
:10594000015510E00398C0F3814003280BD105F501
:105950006C7000EB4410007E80F0010105F56C7066
:1059600000EB4410017600200190019820F0020025
:10597000801C01900198B0606EE00598C0F3C010E3
:1059800010B305F1900050F82400C0680190019810
:1059900020F00200801C019005F1900050F82400D6
:1059A0000199C160062105F564700155E1B22846F0
:1059B000FFF70DFC00200190019820F0800080305E
:1059C00001900198B06047E00598C0F30010E0B383
:1059D0000398C0F38140032816D105F1900050F8D8
:1059E0002400C0680190019820F00200801C019002
:1059F00005F1900050F824000199C160E87818B9C9
:105A0000E1B22846FFF7E3FB032105F56470015579
:105A100000200190019820F01000103001900198B2
:105A2000B0600398C0F3814020B10398C0F3814077
:105A3000022811D1039820F0004000F100400390AB
:105A4000039820F08040039000E005E005F190000D
:105A500050F8240003990160012006B070BD7FB5A5
:105A600005460C4605F1900050F82460B06803909C
:105A7000F0680290DDE902100840039005F1900003
:105A800050F82400006801900398C0F38000D0B162
:105A900000200090009820F00400001D0090009865
:105AA000B06005F1900050F82400C06800900098A4
:105AB00020F00200801C009005F1900050F82400B6
:105AC0000099C160A4E10398C0F3401048B10020E0
:105AD0000090009820F02000203000900098B060E6
